:020000040800F2
:1000000000900020F9E10008B1750008B5750008FE
:1000100000000000000000000000000000000000E0
:1000200000000000000000000000000005C50008FE
:10003000000000000000000071C50008B97500084C
:1000400049E2000849E2000849E2000849E20008E4
:1000500049E2000849E2000849E2000849E20008D4
:10006000D1750008D9750008E9750008F975000810
:10007000FD75000849E2000849E200080D76000815
:1000800049E2000849E2000849E200081D7600083C
:1000900049E200082D76000849E2000849E200081C
:1000A00049E2000849E2000849E200083D760008FC
:0C00B00049E2000849E2000849E20008AB
:1000C000F1B582B015001E0000246846007A0328AE
:1000D00001D301241FE00091002901D102241AE07C
:1000E0000C200FF049FB070001D1032413E00C2181
:1000F0000FF020FF3E603C72009878604A486946E5
:10010000097A890047500098436832002900684600
:10011000007A0BF03FF92000FEBD032803D2424ACB
:100120008000105801727047FEB5002469460C70BB
:1001300001940025ED433D4F3B48A100461830682F
:1001400000286CD0007A012869D101AA6946E0B282
:100150000BF0BCF9A84200D80500684600780128D9
:1001600004D0022812D0042810D040E03068016882
:100170000A682F4B13400B6001680A68C0239A433A
:100180000A60006801683940016034E03068019914
:10019000012901680A6803D13A408023DB0102E0AB
:1001A0003A4080239B0113430B6001680B68C02217
:1001B00093439C46019A9301C0221A4063461A4316
:1001C0000A6001680A6880235B0113430B600068C2
:1001D00001684A07D20F03D108229143016002E06F
:1001E00008220A4302606821E0B200F025F968465F
:1001F0000078002813D0019A68460178E0B233688D
:100200005B681B68984768460078012803D06846F9
:100210000078032803D16921E0B200F00DF9641CD5
:10022000032C89D32800FEBDB0060020FF9FFFFFEE
:10023000FFEFFFFF10B504000BF00CFD20000BF0EA
:100240000BFD10BD10B504000BF06CFD20000BF091
:1002500093FC10BD80B50BF0FFF801BD10B5042470
:100260000BF014F9002800D10024200010BD80B547
:10027000FFF7F4FF02BD242070470000F8B50E0020
:1002800017001C0071680A07D20F02D0616A0029AA
:1002900002D0E16B002901D11B244AE069460870B5
:1002A00068460078032801D3172442E09620C00056
:1002B0000FF062FA050001D116243AE09621C90038
:1002C0000FF038FE7A4869460978890045502E605B
:1002D0006F60684600782874AC6076482B187648C2
:1002E0002A1831006846007805F08CF9040020D106
:1002F0006868016803272A6852685307DB0F06D035
:1003000008220A43026073683B40012205E008228C
:100310009143016073683B400022114668460078B3
:1003200005F0ABF97068074039006846007805F0C1
:10033000E2F92000F2BD5E4980000858B4494A083D
:10034000C38B134202D0C38B5B18C383038C13424D
:1003500002D0038C5B180384C38C134202D0C38C7D
:100360005B18C384438C134202D0438C5B184384D4
:10037000838C134202D0828C51188184704770B5EF
:100380000E004B4980000C58802109028E4228DA69
:100390004D1EE08B284204D03100E08B00F0CBFFF3
:1003A000E083208C284204D03100208C00F0C3FF71
:1003B0002084E08C284204D03100E08C00F0BBFFA8
:1003C000E084608C284204D03100608C00F0B3FFE0
:1003D0006084A08C284204D03100A08C00F0ABFFD8
:1003E000A08470BD10B5324A80001058426813686E
:1003F000B24C1C40090380235B011940214311606A
:100400004821417410BD4821294A80001058417488
:10041000704780B505F034FC01BD80B524498200E9
:100420008958496809684A07D20F02D002F08AFB4E
:1004300002BD01F0D5FC02BD7CB50400032811D239
:100440000D000020009000232A0021000920B24E58
:100450003668B04729002000B04AA300D2589268FD
:10046000D268904773BDAD4A80001058C160704794
:1004700080B5AA49820089580F223223CA5489685C
:10048000896A8847002002BD80B5094982008958E1
:100490004A681268A24B1340A24A934205D199229E
:1004A0003223CA548968896A8847102002BD000037
:1004B000BC0600208E04000081020000F7B596B053
:1004C000964816A90978890040580190002402A88E
:1004D00095494C220FF022FD032301983221405C04
:1004E000002805D1019840680068C104C90F01D1F6
:1004F000032489E0019909684A681207D50F6A4602
:10050000557001228508154003D102256F463C70C5
:1005100003E0002504266F463E704605760F032E45
:1005200001D1082600E000261840022801D1402011
:1005300000E000207F783D436F463F782F433E43E5
:100540003043034002D00300102018430525284201
:1005500002D003002020184317AB1B785E00F3186D
:10056000009302AB009E9E5D3040B0421FD1019EC1
:100570003327F4550198B24E801917AE3678052E00
:1005800031D00B2E0ED00D2E28D0112E11D0122EC0
:1005900013D0142E13D0152E17D0162E0BD0182EC4
:1005A0001CD021E001998968C96A00291CD1022464
:1005B0002AE0112110E016210EE012210CE0098939
:1005C0008908114210D110241EE00989C90911427D
:1005D00001D1102019E01521017005E018A9097852
:1005E000019AD15500E00570009959184978417079
:1005F00000981818807801993222885416A800783B
:1006000001998968896A8847200019B0F0BD000007
:10061000FFFF0000F1B582B00B0017003F486946AC
:10062000097A8900415802243220085C002805D14B
:1006300001204A681268120B024001D1032421E014
:100640006A461370002233254A550B003233C04DE1
:10065000C04E01976F463F78012F04D0062F13D06C
:10066000072F1BD027E04D682D68AD08054009D045
:10067000C14C08550720187000246846007A896824
:10068000896A88472000FEBD486800680640AE427F
:10069000F8D10198006888622B20ECE74868006870
:1006A0000640AE42EED10198006888625D20B24CEF
:1006B00008556220DFE71024E4E70000FFEFFFFFAA
:1006C00070B50B00154984000D59022132242C5DB0
:1006D000002C04D16C682468E604F60F01D10321D4
:1006E00017E0A64E2640C024A400A64211D1452101
:1006F00032242955AB61696918239943D20013400C
:100700000B436B6100243322AC54A968896A884783
:100710000021080070BD000000000020BC06002081
:100720000887000008830000A0040108F3B583B027
:100730001F0000240025B5486946097B89004658FA
:1007400003203221715C002907D17168096800918A
:100750000121009B1B0B0B4001D103256CE0009B8A
:100760005B055B0F032B0BD1009B1840012801D8C0
:10077000012561E06846008DFF21891D884201D373
:10078000022559E068460270706920218843706133
:10079000202069460978032908D0042920D0062999
:1007A00020D0082920D00A2923D024E00C21AC4AEB
:1007B000B21891707169084370616846008D002815
:1007C00027D001946846007B00F098FA012801D1F7
:1007D00004200190029701986946098DA14F12E00B
:1007E0000D21E4E70E21E2E75B209D497118887036
:1007F000E3E75C20F9E710251EE0029A125D23185A
:10080000F318DA55641C8C42F7D39220C0003152A1
:1008100002E09220C00034526846007C33217054BC
:10082000684600788E4970543120322170546846F1
:10083000007BB168896A8847280005B0F0BD0000D8
:100840005E02000038B505000C00052C01D11F2107
:1008500000E05E21287CFFF7EFFD2100287C05F0F9
:10086000ABF9EFF3108072B600213C22A95480F35B
:10087000108831BD654980000858406800788007BD
:10088000800F704738B5426813680424A3438C0076
:1008900004252C401C431460007C04F00AFF31BD89
:1008A00030B501001420EFF3108272B63C23CC5C0B
:1008B000002C29D093239B00CB181D5D6D0601D41D
:1008C000032021E084256D006C430C19CB3C8C6324
:1008D0002578647824022C198C860C0030343C2551
:1008E000495D595CC906C90E012904D0022905D009
:1008F000042906D008E01120002104E01220012183
:1009000001E013200221217082F3108830BD10B560
:100910000100EFF3108072B63C228A5C002A14D0EA
:10092000531EDBB2CB4A8C180022E2545B1E9B4163
:10093000DB0FE45C640606D55B1C3C228B5480F321
:100940001088087C68E13C23CA5480F3108810BDED
:1009500002030000030700002C4980000A58002011
:10096000EFF3108172B63C23D25C002A00D0012044
:1009700081F31088704700005F0200000407000048
:10098000002803D0022805D002D305E011207047CB
:1009900012207047132070471420704770B505006F
:1009A0000024A88EB74901400D2901D110201BE079
:1009B00003260F20297F002911D0491E012912D9B1
:1009C000891E11D0491E1DD0491E09290BD90B398A
:1009D000012908D9891E04D04D3904D006E06E746F
:1009E00011E068740FE0112068740BE05C21287C32
:1009F000FFF722FD6E7468680068C4490140300248
:100A0000814200D01524200070BD0000BC060020EB
:100A100038B50400BE48A2008558052915D168687C
:100A200001681022914301606869BA490140500190
:100A30000843686114203221685400203C21685426
:100A40001E21287CFFF7F8FC04E068698021C902B8
:100A5000014369612000A968896A884731BD0000A7
:100A60005D02000085030000704738B504003220A5
:100A7000205C002803D05B21207CFFF7DDFC2000F8
:100A800000F02CF80325206843682B40207C616827
:100A900009684A07D20F08D0012104F0EEFD606812
:100AA000016808220A43026007E0002104F0E5FD26
:100AB0006068016808229143016020684068054031
:100AC00060680168032291430D4305600121207C89
:100AD00004F044FE207C05F0ADF831BD3EB50400C5
:100AE000002001906068016810229143016000219C
:100AF000200000F034FC93218900200014300FF016
:100B000019FA042301AA0221207CA568AD69A8472F
:100B100080204004009004236A460621207CA568BA
:100B2000AD69A8470325206841682940207C04F06E
:100B3000E2FD20684068054060680168764A0A4026
:100B4000A9061143016037BD80B5032198229200A8
:100B500080180FF0EFF901BD38B504003220205C99
:100B6000002803D05B21207CFFF766FC2000FFF704
:100B7000B5FF0121200000F0F2FB207C05F05AF8BF
:100B8000606801680125CA082A408B079B0F207CFA
:100B900089080D4004D0012104F06FFD022003E01C
:100BA000002104F06AFD3E20607431BD70B50A007A
:100BB00057498300CB585C682568032103262E40E3
:100BC000B24200DB32008D430A402A4322605A6859
:100BD000146803252540012D01D1002500E02025C2
:100BE0002026B443254315605A681268114004F06A
:100BF00076FD70BD4649820089580A7F092A00D1D6
:100C0000704710B54A68136810241C4314604A6981
:100C100080239B0213434B618968896A884710BD12
:100C200030B53B4A80001358002400201A19094DA2
:100C300052191578002D04D0641CE4B2012CF5D9AA
:100C400030BD202010700120137801248C401C43FB
:100C5000147030BD4D02000030B52D498000095898
:100C600000200022D3B2CB182C4C1B191C78602515
:100C70002540202D04D0521CD3B2022BF2D330BD1C
:100C8000187030BD1FF0000038B5214A800013589D
:100C90000022D0B21C18214D645D60252540202D16
:100CA00004D0521CD0B20228F3D331BD84225200AA
:100CB000504318183D300FF031F931BD38B51449A3
:100CC0008200895800235A1CCB18144C1B191C781D
:100CD00060252540202D03D0D3B2022BF3D331BDA4
:100CE0001C78402525431D703C23CB5C002B01D193
:100CF0003C23CA548968896A884731BD0449800009
:100D00000858406800688101C80F70470407000058
:100D1000BC060020FFF9FFFFFFFFFFF34D020000BC
:100D2000F3B58DB004000220049000250395012640
:100D30001427617C012900D195E118293FD0192998
:100D400050D01D2900D192E0272900D1B0E02829F8
:100D500000D1B9E0292900D1C0E02C2900D1BCE2A2
:100D6000302900D1DEE13A2900D18CE23B2900D1C3
:100D700070E23C2900D147E24B2900D114E16329FC
:100D800000D178E1642900D1A0E1672900D120E1F8
:100D9000682900D138E1742900D1F3E1932900D109
:100DA000A6E0942900D1A7E0952900D1BDE09929BA
:100DB00000D097E206212000FFF744FD20E26168A1
:100DC000096889080E4002D060694107C80F009089
:100DD000192308220021200000F076FB002856D1BC
:100DE000072007E10E98007811283CD1A08EC10B96
:100DF0001ED14104490F1BD0C006C00E042817D1D4
:100E00008B00A06B821C0521207CA668B669B047C8
:100E10000E980078142804D00E990F702000FFF768
:100E200076FD0320607404950721207CFFF704FB06
:100E3000A08EF0210902014015D1C006C00E042881
:100E400001D010280FD10E980078142804D00E98E5
:100E500007702000FFF75BFD0320607404950821F4
:100E6000207CFFF7E9FAE08B8021090299E00595E3
:100E700005AB06AA0121207CA5686D69A84704215D
:100E8000059800F0BFFA002802D0032060742AE21F
:100E900002900320019005988008009006AB042280
:100EA0000021200000F03BFB0028F0D10A2165E181
:100EB000122020770521207C04F0ABFE28206074EE
:100EC0004F48E0832D2099E0E08BF10388420ED15A
:100ED0000521207C04F0A5FEE58391E10E980078C1
:100EE000142804D00E9807702000FFF710FDFAE1D7
:100EF000200000F0FBF9F6E16168096889080E40FE
:100F000002D060694107C80F009095230922002193
:100F1000200000F0D9FA0028EDD1102020773948C0
:100F2000E0831B200490222128E10E9800781428E9
:100F300035D0A08EF0210902014030D11F211F239E
:100F40000340032B06D0042B08D00C2B06D0102B0B
:100F500015D024E0200000F06DFA08E001400C29D3
:100F600001D1262100E02721207CFFF765FA03202C
:100F7000607404950E98007814280BD10FE0282196
:100F8000207CFFF759FA0320607404950E980078CE
:100F9000142804D00E9807702000FFF7B8FCE08BEF
:100FA000F10388422BD12BE103AB05AA1421207C4D
:100FB000A5686D69A8470398002800D192E1002038
:100FC00002900320019003988008009005AB0C224A
:100FD00054E1616809688908314000D0012000901F
:100FE000682318223120215C200000F06DFA0028CF
:100FF00005D10F2020770348E0831B20049072E185
:101000002D8000001B8000000E980078142823D04B
:101010003020205C3121615C88421DD1A08EC10B43
:101020001AD1010B490717D0C006C00E0C2813D1E6
:101030000423A06B821C1421207CA668B669B047EB
:101040000320607404950E980078142804D00E983C
:1010500007702000FFF75BFCE08B802109028842CB
:1010600008D11120CDE0009503231022002120009B
:1010700000F02AFA37E103ABC94822180821207C86
:10108000A7687F69B8471921039800F0BBF90028C9
:1010900029D1C448261835707570207CFFF72EFEC4
:1010A000002803D1707880210143717002950320DC
:1010B00001900398001D80B20090BB4823180122C4
:1010C0000021200000F05EFB482157E003ABB4484C
:1010D00022181321207CA7687F69B847182103983C
:1010E00000F090F9002800D0FCE0AE4826183570DA
:1010F0007570207CFFF702FE002803D170788021F4
:10110000014371700295032001900398001D80B285
:101110000090A54823180F220021200000F032FB88
:1011200061212BE003AB9E4822180921207CA7688F
:101130007F69B8470721039800F064F9002870D14F
:101140009849655460184570207CFFF7D7FD00284A
:1011500005D194482018417880220A4342700295B4
:10116000032001900398001D80B200908E48231840
:1011700002220021200000F005FB4F21207CFFF718
:101180005BF9B0E00E980078142834D0A08EC10B23
:101190001AD1010B490717D0C006C00E052813D17C
:1011A0000423A06B021D0F21207CA668B669B047FE
:1011B0000320607404950E980078142804D00E99CA
:1011C0000F702000FFF7A3FB3420205CC006C00E88
:1011D000102810D15921207CFFF72EF9E5830E98B5
:1011E0000078142804D00E9807702000FFF78FFBBA
:1011F000032060740495E08B80210902884272D13B
:101200000320607404956EE003AB654822180D213D
:10121000207CA7687F69B8470421039800F0F2F8A2
:1012200000285FD15F48261835707570207CFFF765
:1012300065FD002803D1707880210143717002950B
:10124000032001900398001D80B200905648231897
:1012500007223DE0059503AB05AA0F21207CA56878
:101260006D69A8470421039800F0CCF8002839D113
:10127000029003200190009605AB0522002120007A
:1012800000F04DF92FE003AB454822181121207CD6
:10129000A7687F69B8470921039800F0B3F80028D0
:1012A00020D14048261835707570207CFFF726FD48
:1012B000002803D1707880210143717002950320CA
:1012C00001900398001D80B2009037482318052232
:1012D0000021200000F056FA05E05021207CFFF7A5
:1012E000ABF88DE7667404980FB0F0BD38B5040014
:1012F0002A25207CA168896B88470A2802D00C28FF
:1013000017D00DE0002000900323032200212000CD
:1013100000F0DAF800280DD1200000F08BF831BD84
:10132000606800788007800F022802D10120607475
:1013300031BD657431BD10B5020080200002540437
:10134000640CA14200DA501A80B210BD83685B6859
:10135000002B00D1704780B5007C984701BD10B5C7
:10136000426813685C05640FA1420BD02E4C1C40F0
:101370000902E023DB000B40234313605A21007C69
:10138000FFF75AF810BD80B52849820089584A698C
:1013900080239B0213434B618968896A884701BD9A
:1013A00067020000650200006302000001000020E7
:1013B000C043420C8B8C134201D0888C10404B8C64
:1013C000134206D04B8C1340984202D3498C100034
:1013D0000840704738B505000C0068680068400593
:1013E000400F844203D05A21287CFFF725F8686813
:1013F00001680D4A0A402102E023DB000B40134341
:10140000036031BD1CB5020000208A420AD21820B8
:10141000009000BF15A3002200210620044C246880
:10142000A047022016BD0000FFF8FFFFBC06002009
:101430000000002010B50400606802680121D30894
:101440000B4007D1082313430360207C04F03BF9D1
:10145000252107E008218A4302600021207C04F056
:1014600032F92421207CFEF7E7FF10BD446174614E
:101470002053697A65206973206E6F7420636F72E0
:101480007265637400000000010000D10548064940
:101490000860704701000020044A914200D10120F9
:1014A00070470000C7140008000000200000413011
:1014B00010B504F0DFF80400FEF7DDFE2018E1218E
:1014C0000901401810BD7047FEB5012504000F004A
:1014D000160060680068000B284014D008A8007847
:1014E000019002200090A248231832003900207C8D
:1014F00004F038F90328ECD0390010280ED00D2E56
:1015000004D1012203E060741020FEBD00226B466E
:101510001B7A00930300200000F024FCFEBDF7B509
:1015200082B004000020934E0CE000218200A2183B
:1015300055181A68CF00FA40AA55491C0429F5D35A
:101540001B1D401C0A998842EFD360680068C104E3
:10155000C90F1FD00CA8007801900A988000801C49
:1015600080B20090B01E23186846027C017B207C6C
:1015700004F0F8F80328E8D06946097B102807D062
:101580000BAA1278009203000022200000F0EAFB70
:1015900005B0F0BD1020FBE7F8B50400A06B817822
:1015A000C078000208187449611808803422A25CCF
:1015B000D206D20E8A70012503049B0E01221A4026
:1015C0000304DB0E1B0703D0130001D034209EE080
:1015D000C605F60D00230704FF0F0DD167482652FC
:1015E0006648205A83421BD2A06B001DC05C644A2F
:1015F000A218D0545B1CF3E7F827FF01074006D17F
:10160000A08E4004400F07280AD31A2E08D9002ABA
:1016100006D15A48205AB04202D2E383372076E0FE
:1016200089780326227F002A39D0012908D002298F
:101630001CD005292AD0072923D00F290BD094E0EC
:101640001923A06B021D0821207CA768BF69B84739
:101650006674472114E01823A06B021D1321207C1F
:10166000A768BF69B8476674622109E00723A06BC9
:10167000021D0921207CA768BF69B84766744E2106
:10168000C7E21A23A06B021D0D2103E00923A06B02
:10169000021D1121207CA768BF69B84763E0C81EFE
:1016A000082862D801A2125C974400BF0A28BE46EF
:1016B000BE8498666E0020680089000B284254D0D2
:1016C0000123A06B021D1021207CA568AD69A847ED
:1016D0003A201CE020680089000B284245D00123F5
:1016E000A06B021D0E21207CA568AD69A8473B2098
:1016F0000DE0206800898009284236D00223A06BC3
:10170000021D0C21207CA568AD69A8473C206074AF
:10171000F1BD20680089800A0DE0A0680569002DF0
:1017200024D01648235A16482218207CA847F1BD19
:1017300020680089400A284217D0A0680069002864
:1017400009D112E020680089400A28420ED0A06822
:10175000006900280AD00948235A09482218207C29
:10176000A5682D69A8476674F1BD6574F1BD0000D8
:1017700063020000650200005A0200008E040000AF
:1017800081020000F8B584B00A9F0C9E04000D0091
:1017900068460272039360680068C104C90F19D0DB
:1017A00001960097039B6846007A80220243290035
:1017B000207C03F0D7FF0328EDD02900102807D0A4
:1017C0000BAA1278009203000022200000F0CAFA4F
:1017D00005B0F0BD112060741020F9E7F0B585B0B8
:1017E00004000227894820180090392080216A4689
:1017F0001172874A00250326637C312B10D0332BCE
:1018000075D0342B7CD0352B00D1A8E0362B00D1FD
:10181000BEE0372B00D1BEE0382B00D1EFE0F2E084
:101820007C482018049069460D737B496552207CE2
:10183000FFF764FA012807D1784820180570457031
:1018400077482018049028E076496118CD727549D0
:1018500061180D73207CFFF751FA002806D17148FA
:101860002018017B6A46127A0A4302736A482018DC
:1018700041881B290ED36A482018405D00994855BD
:101880006D1C1A2D09D2F6E765496118495D009A69
:1018900051556D1C41888D42F6D30120616949097B
:1018A00001400AD0616809688908014002D0694690
:1018B000087301E069460F7333266846007B029087
:1018C0000196554820184088001D80B20090049B66
:1018D00054482018C2783320215C2000FFF752FFC3
:1018E000002803D14F482018407920778BE0E2830D
:1018F0001B274C496118C978042951D174204FE045
:101900004848205A4004020F1A21514342482018E7
:101910004388994201DA0A2A01D366741DE05A1AF3
:101920001A2A02D25B1ADBB200E01A23002206E078
:101930003B4EA6198F18F65D009FBE54521C9A426A
:10194000F6D33449631842883648205A4004010FC0
:10195000207C04F0A8FB35206074002753E0606908
:101960008106C90F01D0362000E003202A496618FD
:101970000295019070880090264823180938201895
:10198000C2783020215C2000FFF7FCFE35803AE071
:10199000E2831B2704E0E08B0B02984202D10F2068
:1019A000607430E0E2831B271A4825182900207C48
:1019B00004F0A1FB60680068C104C90F12D00020C8
:1019C0000190062000902B00164820188078694668
:1019D0000A7A02433020215C207C03F0C3FE0328F6
:1019E000E8D002E01120607410203921009103003A
:1019F00000223020215C200000F0B4F903E066747E
:101A0000002705482552380005B0F0BD67020000E8
:101A10001B800000630200008E04000087030000AA
:101A2000850300005A02000080B53021415C31225C
:101A30008154818ECA0B02D0FFF7AEFD01BDF022AA
:101A400012020A4002D100F005F801BD00F0E5F8ED
:101A500001BD0000F8B504002A27032601250B204C
:101A60003421615CC906C90E491E172900D9C7E097
:101A700001A2525C52009744CB0BC0C020C0225B35
:101A8000493441C019C3C3BE6F93B79FB083C3BA73
:101A9000606800688008054000D0B9E00220207727
:101AA0002B21207CFEF7C8FC9820A7E02677322166
:101AB000207CFEF7C1FC1020A0E033219CE0062032
:101AC0002077606800688108294004D1216849684E
:101AD000C908294039D00C21207CFEF7ADFC4C20F0
:101AE0008CE020684068C00828400AD00820207791
:101AF0003C21207CFEF7A0FC22207FE0A068C06A89
:101B000000287DD0112020779D2077E02321207CA4
:101B1000FEF792FC6069C005400F01D00F206DE018
:101B2000A068806B00286BD010202077932065E0A0
:101B3000606800684105490F032963D18108294085
:101B400004D021684968C90829405BD00720207764
:101B50001D20607406214FE020680189C9082942D0
:101B600053D0616809688908294003D14068C008DA
:101B700028404AD00A2020776320607446213BE049
:101B8000606800688008284004D020684068C00869
:101B900028403AD05F2020776420607460212BE0D9
:101BA00021680989490929422FD020774D21207CBD
:101BB000FEF742FC302021E021680989890829428A
:101BC00023D020774921207CFEF736FC606800682E
:101BD0008008054011D02D2010E020680089C00940
:101BE000284212D02F2009E0092020770DE00F2095
:101BF00020774B2002E059210BE011206074F1BDE9
:101C0000606800680640022E01D16574F1BD6774FA
:101C1000F1BD207CFEF710FCF1BDFEB50400A08EE6
:101C2000012503260027C106C90E012929D0022952
:101C30000BD003293DD0062979D0072900D185E0B2
:101C40000A2978D00F296ED089E0A06B8178C278FC
:101C500012028918027912048918407900060818BE
:101C6000009060680068800828407AD004236A46A3
:101C70000621207CA668B669B0472577A78409208D
:101C80006EE06168096889080D406AD180090640E4
:101C90003100207CFEF78AFFA08E4004400F8300B5
:101CA000A06B821C0421207CA568AD69A847442054
:101CB00056E001970097A06B8178C27812028918CC
:101CC000027912048918407900060D186B4601AAA2
:101CD0000321207CA7687F69B84704210098FFF79B
:101CE00091FB00281DD1606800684005400F032863
:101CF00017D101983849884213D1280F05280ED0F2
:101D000008280AD0092803D00A282AD1662100E031
:101D10006521207CFEF790FB03E0292020E02720AE
:101D20001EE06674F7BD200003F0BEFAF7BD206820
:101D300000890009284210D00423A06B821C0B21CB
:101D4000207CA568AD69A8472C2009E0206800899F
:101D5000000A284201D03D2002E06574F7BD112041
:101D60006074F7BD10B50C001021052B06D0062BB2
:101D70000ED0072B11D0092B08D02AE0029941740C
:101D80004169164A0A404261002122E0092120E00F
:101D900042694B02134343611BE0002C05D0012A2A
:101DA00001D1992214E0072113E044682468240A31
:101DB0002340042B03D0012A09D10F2208E0002A76
:101DC000FBD18268526B002AF7D0922200E01122E8
:101DD0004274080010BD000088130000FFBFFFFF21
:101DE000F8B58CB004002848A1004558687C482804
:101DF00033D12800FEF772FE2800FEF7A5FE286802
:101E0000007983079B0F00220021287C03F035FC1A
:101E100068680168082291430160686801680322CC
:101E200091432A6812799207920F0A4302600121B6
:101E3000287C03F093FC287C03F0FCFE3E206874B1
:101E4000A97C3E2909D0A8740020009000233E22DE
:101E5000297C0420B14E3668B04768694103C90F38
:101E600006D0AF49014069616421287CFEF7E4FA9D
:101E70002800FEF715FD694608736846007B0328B5
:101E800004D101200DB0F0BDBC06002068464473AB
:101E9000022468680068C104C90F00D148E168697C
:101EA0008103C90F14D0A72169749E4A02406A6158
:101EB00000203222A854A87CA7282BD0A974002087
:101EC00000900023A722297C0420944E3668B04756
:101ED0003220285C0F2801D014281BD16846007BD3
:101EE000142805D01420694608732800FEF70FFD5A
:101EF00032202A5C6A74002032216854A87C904207
:101F000008D0AA74002000900023297C0420834E6E
:101F10003668B0476846007B11281FD168680068A2
:101F20000107C90FA88E8006C20F914216D1142056
:101F3000694608732800FEF7EAFC92206874A87CC2
:101F4000922800D104E19220A87400200090002380
:101F50009222297C0420714E3668B047687C69461D
:101F60000870714FF0200002704E04216A4612780A
:101F7000002A00D1E0E0521E40D0921E012A00D873
:101F800023E3921E00D1FBE10A3A00D1FDE1521E8B
:101F900000D199E2521E00D1A3E2D21E00D128E264
:101FA000121F012A2AD9921E00D1D2E2D21E25D0B8
:101FB000521E00D1C3E3121F00D116E3521F022AA2
:101FC0001CD9D21E00D1F7E2521E01D100F039FC1B
:101FD000521E13D0921E01D100F080FC521E012A25
:101FE0000CD9921E01D0921E052A01D800F0BCFC2B
:101FF000921F01D100F086FC521E032A01D800F086
:10200000B7FC121F00D1AFE0921E00D121E2D21E18
:1020100000D1C1E0521E00D100E1521E00D10FE1FB
:10202000521E00D128E1521E00D178E1921EA6D0A6
:10203000921EE3D0521E01D100F0E5FB121F00D129
:102040006AE2D21E00D134E3521F00D188E3521E4F
:1020500000D1FFE2093A022AD0D9D21E01D100F004
:1020600001FC521E01D100F00FFC521E012AC5D9FD
:102070000D3AC3D0123A01D100F092FC0C3A67D06D
:10208000521E022ABAD9521F00D171E2521EB5D097
:10209000521E00D174E1521E00D1BEE1521E082A28
:1020A00001D800F06AFC0B3A01D100F07FFC03A9D3
:1020B000280002F0E3F904006A7CA87C904208D072
:1020C000AA74002000900023297C0420134E366857
:1020D000B047124E6846007B142801D100F073FC13
:1020E0002800FEF75BFC152809D16846007B142800
:1020F00005D01420694608732800FEF708FC6A7CA6
:10210000A87C904207D0AA74002000900023297C6C
:1021100004203468A047002400F074FC0000002074
:10212000FFFFFBFFFFFFFDFFF48100001B800000AD
:102130000024E4432000A5E668680168102291436A
:1021400001605F21287CFEF777F90024E443B3E7C0
:1021500068680168102291430160A868416B0029FA
:10216000F3D0287C8847F0E76868016801220B0BF0
:102170001340A1D08B079B0F012B01D1002300E05E
:1021800020232024A1430B4303602A77EF83FA2402
:102190006400432068748FE76846007B112835D1BE
:1021A000A88EC20B2CD10726020B324228D0C206C1
:1021B000D20E012A24D10022C14BEB189A706A6911
:1021C000114369610006810F6846407BFEF7EEFC13
:1021D000A88E000B0640B300A86B821C0421287C4B
:1021E000AE68B669B0470120287768680168102298
:1021F00091430160442068746846007B142805D030
:102200001420694608732800FEF781FBE88BA103C0
:10221000884202D10F20687400244DE76A462900E5
:102220001831287CAB681B6A984768691821884375
:102230000099C90018220A4002436A614520EAE772
:1022400068690104C90F01D0022000E0002002905B
:1022500046200190012000902B001833022200211B
:102260002800FFF75CF9002805D16869954901400D
:102270006961EE831B241FE76946097B112948D158
:10228000A98E014245D1FA2040001F261F220A4094
:10229000921E012A17D9921E01D0083A25D16A68E8
:1022A00012685205520F032A04D043216974EF8348
:1022B000040014E031400C2901D1492000E0032042
:1022C000687400240BE0EF83040004212800FFF76A
:1022D00046F8472068746846007B142805D014200F
:1022E000694608732800FEF712FBA88E0640022EEE
:1022F00009D0032E09D0042E03D00C2E09D10321BE
:1023000004E0022102E0042100E00121287CFEF724
:1023100093F8E88B802109028842ACD17AE76846BD
:10232000007B1128F5D1A88E9F4901400629F0D1E4
:102330001420694608732800FEF7E9FA03212800F3
:10234000FFF70DF81021287CFEF776F86868006822
:102350000104C90F02D02868016800E00121684625
:10236000407B03F0FBF90020A88403206969C908B9
:102370000140032901D18D49A98468740024C8E76C
:1023800003A9280001F0ACFB95E601266868006807
:10239000C00B304006D0A868026B002A02D0002192
:1023A000287C9047686801681022914301600121F0
:1023B0002800FEF7D4FF424829188878032809D35B
:1023C00068698008064003D0A868406B002871D176
:1023D0000020DFE6401C887005212800FEF732FA55
:1023E0007348E883012201212800FEF7AFFF9B20FC
:1023F00011E7686800680104C90F06D0A868026B7D
:10240000002A02D00021287C9047002201212800C8
:10241000FEF79CFF6648E883E9E700216846407BB9
:10242000AA68D26B904701280DD16248E8836921E0
:102430006846407BFEF700F84020687400241321B2
:10244000287CFDF7F9FFE88B80210902884235D10D
:102450001EE001216846407BAA68D26B90470128A4
:1024600011D12800FEF701FB052200212800FEF70C
:102470006DFF68216846407BFDF7DEFFEF83FA249D
:10248000640043206874E88B80210902884215D1DA
:10249000062200212800FEF759FF094828188078F5
:1024A000032800D2B6E668694107C90F04D0A868BE
:1024B000406B002800D0FAE000246C74FCE500BFFB
:1024C0005E020000FF7FFFFF002000900323032235
:1024D00000212800FEF7F8FF0028EFD1012028771F
:1024E00054E6686800684005400F042800D191E672
:1024F0000020009050230D223120295C2800FEF797
:10250000E3FF002807D103202877EE831B24302126
:10251000287CFDF791FFCFE56846007B142817D093
:102520003020285C3121695C884211D1A88E1E4977
:10253000014003290CD101202877EF83FA2464009D
:10254000432068741420694608732800FEF7DFF9F9
:10255000DFE600944323072200212800FEF7B4FFA2
:1025600000281FD106202877EE831B240B21CFE7FC
:102570006846007B112815D1A88E0B490140062919
:1025800010D12C21287CFDF757FF0320687400240C
:102590006846007B142805D014206946087328007B
:1025A000FEF7B5F988E500BF1FF0000028A3000082
:1025B000E8830000E3880000002000900323042249
:1025C00000212800FEF780FF76E5684600780428A1
:1025D00006D00020287769742021287CFDF72CFF85
:1025E00003A9280000F01AFA65E5A86881680029A7
:1025F0002ED06846407B88470A2802D00D2822D07A
:1026000026E001220021287CAB685B6A9847002005
:1026100000905923032200212800FEF755FF0028CF
:1026200010D1082028776868016810220A430260E8
:1026300006220021287CAB685B6A9847B048E88393
:10264000E124A40038E50020009003230C22B7E722
:102650002A20E0E56846007B112819D1A88EC149DF
:102660000140062914D1287F092805D0092200211C
:10267000287CAB685B6A9847532068746846007B87
:10268000142805D01420694608732800FEF73FF986
:10269000E88BA1038842D5D10F220021287CAB68AA
:1026A0005B6A9847A868406B002800D1B2E5922089
:1026B000B1E52800FEF753FE0A220021287CAB6812
:1026C0005B6A9847686800788007800F022802D10B
:1026D000287C03F020F801212800FEF7D3F8287F9A
:1026E000092805D00B220121287CAB685B6A98473A
:1026F000002000905B23062200212800FEF7E4FE64
:10270000002808D10C220021287CAB685B6A98471E
:10271000C148E8831424687C5B280FD0002128007E
:10272000FEF7B0F806220121287CAB685B6A984767
:1027300007220021287CAB685B6A9847BCE40094C0
:1027400058230A2200212800FEF7BEFE002805D1EA
:1027500008202877EE831B240222EAE70F22E8E70D
:102760006946097B11290CD1A98E014209D1C806FD
:10277000C00E032806D004282DD00C2829D01028FC
:1027800032D0A5E06868016810220A4302605C4804
:10279000E883E124A400287F092805D0062200212F
:1027A000287CAB685B6A984704212800FEF7D7FDB8
:1027B0003A21287CFDF740FE6846007B142805D0AE
:1027C0001420694608732800FEF7A1F859206874A0
:1027D0007EE03B2100E01621287CFDF72DFE6846B7
:1027E000007B142808D170E01721287CFDF724FE17
:1027F0006846007B142868D01420694608732800B6
:10280000FEF785F861E00020049004AB05AA0021E2
:10281000287CAE687669B04704210498FEF7F2FD83
:10282000002801D00320B5E4029003200190049811
:102830008008009005AB012200212800FEF76FFE02
:102840003AE40020029003200190012000902B0028
:102850002C33062200212800FEF761FE0028EFD16C
:102860005D2155E600946623142200212800FEF71E
:102870002BFE0028E4D1EE831B244A21287CFDF79F
:10288000DBFD0B202877DBE76846007B11281FD192
:10289000A88EC10B1CD0C006C00E0C2818D1042372
:1028A000A86B021D0A21287CAC68A469A047684671
:1028B000007B142805D01420694608732800FEF711
:1028C00026F84B21287CFDF7B7FD0320687400240F
:1028D000E88B802109028842B2D141E095482F1847
:1028E000009439233A7800212800FEF7EDFD0028F6
:1028F000A6D1787828774421287CFDF79DFDB8E49F
:10290000848300006846007B142824D0A88EC00B66
:102910000ED02800FEF740FE6846007B142805D044
:102920001420694608732800FDF7F1FF0020E883B2
:10293000A88E0C49014010290DD103206874002491
:102940006846007B142805D01420694608732800C7
:10295000FDF7DDFFEC83E88B8021090288421CD162
:10296000032058E41FF000002800FEF737FF3BE685
:1029700003A92800FEF7D4F936E603A9280001F0E0
:10298000EFF90400686800680104C90F06D02868E0
:1029900001686846407B02F0E1FE51E70121F8E75B
:1029A0006846017B280002F03BFC49E700200090CC
:1029B0005823132200212800FEF786FD0028F4D1B9
:1029C0000920287755E468690127410B394019D05F
:1029D000800B384007D05B21287CFDF72DFD68690E
:1029E00055490140696103206874A97C032908D016
:1029F000A8740020009000230322297C042034685E
:102A0000A047012468694D4901406961002C01D14A
:102A1000FFF73EFAFFF78EFB14800000F8B50400C4
:102A20000E000227307814280BD02000FEF7FCFFA0
:102A3000307814287BD0142030702000FDF767FF19
:102A400075E06169C80CBE030027002821D0218CE5
:102A5000B14211D10F206074009700237022217CB5
:102A60000920374D2D68A84798208000205C401C25
:102A70009821890060545AE0A18E0905490F0A186F
:102A800033235A43164326840F1833204743BFB2DB
:102A90004DE0A08CB04204D1452060740E436661C5
:102AA00045E0207CFDF758FF002828D13220205C2B
:102AB000002824D060680068032103220240012A14
:102AC00007D0014002291AD1207C02F03BFE0128E8
:102AD00015D13320205C312160543220205C607499
:102AE000452802D160690643666132216754A06AB5
:102AF000E06260698021C9010143616117E0608C77
:102B0000B04209D167849820800020188178491C40
:102B10008170052060740AE02000FEF747FC322136
:102B2000615C002902D0022800D30220070038008F
:102B3000F2BD00005E020000FFBFFFFFFFDFFFFFEE
:102B400000000020F8B586B005002948A9004458C7
:102B5000607C482834D12000FDF7C0FF2000FDF73D
:102B6000F3FF2068007983079B0F01220121207C5D
:102B700002F083FD6068016808220A430260606811
:102B8000016803229143226812799207920F0A4347
:102B900002600121207C02F0E1FD207C03F04AF874
:102BA00002206074A07C02280AD00220A0740020B9
:102BB000009000230222217C0420CA4E3668B047D0
:102BC00060694103C90F06D0C749014061616421B2
:102BD000207CFDF731FC2000FDF762FE694608739A
:102BE0006846007B032805D1012007B0F0BD00BF77
:102BF000BC0600206846457360680068C104C90FC0
:102C000000D13BE160698103C90F00D144E168460E
:102C1000407B02F09BFDA6206074092121770021F2
:102C20003222A1546169B14A0A406261B049E1842B
:102C3000A17CA62900D025E102256846007B112849
:102C40001FD1606800680107C90FA08E8006C20FFF
:102C5000914216D11420694608732000FDF757FEF3
:102C600092206074A07C922800D155E19220A0743B
:102C70000020009000239222217C0420994E366887
:102C8000B047607C9B4966189B4F9C49020000D16D
:102C900036E1421E67D0521E00D149E1521E012A80
:102CA00001D800F090FD921E00D189E1521E00D1A2
:102CB0008BE1521E00D190E1521E00D1E1E1521E83
:102CC00000D123E2D21E00D176E2521E00D186E26C
:102CD000521E00D11DE1521E00D10DE3521E00D143
:102CE000C6E2521E00D1CCE2521E00D1D8E2521EE2
:102CF00000D189E3521E00D12BE3521E00D132E3F2
:102D0000521E00D1D5E1521E00D14CE3521E012AC1
:102D100029D9921E00D1A3E3521E00D1B0E3921E26
:102D200021D0521E01D100F088FC521E01D100F0CA
:102D30009AFC521E01D100F0E6FC521E01D100F0B7
:102D40000FFD521E01D100F0E5FB921E01D100F0F3
:102D50000AFC521E01D100F02EFC521E01D100F0DF
:102D600049FC521E022A01D800F01BFED21E01D1DE
:102D700000F0F4FB521E01D100F096FD521EF2D07D
:102D8000521E01D100F0A1FD521E01D100F0CFFD75
:102D9000521E012AE7D9921E01D0921E052A01D89F
:102DA00000F0FBFD921F01D100F0D2FD521E032A5C
:102DB000D9D9113AD7D0521E00D150E10F3A01D1E2
:102DC00000F0E9FCD21F012ACDD9521F012ACAD92D
:102DD0000D3AC8D0123A01D100F018FE0C3A00D1D9
:102DE0009AE0521E022ABED9D21E00D113E2521E10
:102DF00000D129E2921EB6D0521E00D1E0E0921E10
:102E0000082A01D800F0D3FD0A3A01D100F0E2FD12
:102E100003A9200001F032FB0500627C314EA07C4A
:102E2000904207D0A274002000900023217C04204F
:102E30003768B8476846007B142801D100F0ECFDE4
:102E40002000FDF7ABFD152809D16846007B14284A
:102E500005D01420694608732000FDF758FD627CF8
:102E6000A07C904207D0A274002000900023217C17
:102E700004203568A847002500F0EDFD0025ED434E
:102E80002800B2E6A074002000900023A622217C36
:102E90000420144D2D68A84702253220205C0F28FD
:102EA00001D014281CD16846007B142805D01420BA
:102EB000694608732000FDF72AFD3220225C627407
:102EC00000203223E054E062A07C904208D0A2743B
:102ED000002000900023217C0420024E3668B04779
:102EE000ABE600BF00000020FFFFFBFFFFFFFDFF80
:102EF000118000005E0200001B8000001FF0000037
:102F0000606801681022914301605F21207CFDF719
:102F100093FA0025ED4380E7606801681022914331
:102F20000160A068416B0029F3D0207C8847F0E75E
:102F3000012760680068C00B384002D02068016833
:102F400000E001216846407B02F008FC60680168EF
:102F50000A0B3A402FD08A07920F012A01D1002292
:102F600000E02022202399430A4302600020F070F1
:102F700001212000FEF7F3F960680068010939407B
:102F800005D0AE48E08314250620607445E7C00BE9
:102F900007400AD020680078800700D487E03079A5
:102FA000142800D383E0E168002900D17FE0401CB1
:102FB00030710520E9E72121207CFDF73DFA4CE046
:102FC00003A9200000F08CFD26E7E08BA9038842CE
:102FD00002D10720607400251FE760694007C10F18
:102FE000200000F045FD052802D00928F4D011E0AA
:102FF0000120207760690421014361610020F070A5
:10300000B070E7831B25162060740F21207CFDF72C
:1030100013FA02E760694107C90F0FD1F07833282E
:1030200017D28748E0839625082060748548618C14
:10303000014202D0618C05000D40EEE66068007828
:103040008007800F022802D1207C02F068FB11204B
:10305000C0E72121207CFDF7EFF9002095E7002152
:10306000200000F005FD052807D104212000FEF70F
:1030700076F901202077E783C5E70020207711202B
:1030800083E7A803618C814206D1002161843179F4
:10309000491C317105216174E18B8142CDD12068D9
:1030A00040680106C90F02D0F078401CF07007207C
:1030B0006BE76846007B112809D1A08EC10B06D1B1
:1030C000010B490700D111E1C006C00E022800D053
:1030D0000CE1A06B8178C27812028918027912047F
:1030E00089184079000608180090A08E0006810F0C
:1030F000207CFDF75BFD04236A460621207CA56841
:10310000AD69A847092060740025E5E0022707257E
:1031100001A9207CA268D26990470A2810D00B2808
:1031200035D00D286068006836D1000A0540032DAF
:1031300001D1032300E00E23002000900C2235E093
:10314000A948E0831E2760680068000A0540012D39
:103150000BD00198032808D16069C006800F0328AE
:1031600003D180200002E0830027002000900C2380
:10317000032200212000FEF7A7F960691821884387
:103180000199C90018220A400243626112E000203E
:1031900000900C23022209E0000A0540032D01D112
:1031A000032300E00E2300200090042200212000D1
:1031B000FEF78AF93D0030E6E08BA9038842FAD198
:1031C00004212000FEF7CBF8A06801680029F2D0A6
:1031D000207C8847002800D0DBE20D20D5E60020C7
:1031E00000900323062200212000FEF76DF900283D
:1031F00010D103212000FEF7B2F81021207CFDF74A
:103200001BF90020A0846069C006800F032801D14B
:103210007648A08401E60120009097230222002135
:103220002000FEF751F90028F4D125772921207CD0
:10323000FDF702F96E48E0836E4DEEE51480000064
:1032400096800000FF7F0000E08BA9038842F4D144
:103250002A21207CFDF7F0F80020009003230622AD
:1032600000212000FEF730F9002809D12E21CDE6FB
:10327000002000900723032200212000FEF724F9FC
:10328000CBE50020009012230D223120215C20008C
:10329000FEF71AF90028F3D1E7831B253021B5E6A4
:1032A0006846007B142821D03020205C3122A25CAB
:1032B00090421BD1A08E0140032917D13121207CDF
:1032C000FDF7BAF83020205C002802D10720607496
:1032D00002E00320607400256846007B142805D0B6
:1032E0001420694608732000FDF711FBE08B802154
:1032F00009028842C4D14CE2606800788007800FE0
:10330000022802D1207C02F00AFA05212000FDF7F4
:1033100099FA60680168102291430160B078401CFE
:10332000B070616934480840606100213222A154C4
:10333000324901406161022201212000FEF706F8B6
:1033400069216846407BFDF777F8E7831B25152048
:103350001BE6606800788007800F0228F0D1207C8F
:1033600002F0DDF9ECE7E08BA90388421AD160692D
:10337000B178032903D34107C90F30D16DE6204945
:10338000E1831721617400254005800F421E9241A0
:10339000D20F01212000FDF7D9FF032201212000D7
:1033A000FDF7D4FF39E500216846407BA268D26B67
:1033B0009047012805D11348E083C825AD001320AC
:1033C0006074E08B802109028842EBD10622012142
:1033D0002000FDF7BBFF60694107C90F03D0A0685B
:1033E000406B002837D138E61E800000B0B60000E0
:1033F0002682000026020000FFF9FFFF3FFEFFFFCC
:103400008A82000020830000E08BA903884226D135
:10341000042201212000FDF799FF01216846407B2D
:10342000A268D26B904701280DD12000FDF71DFB4B
:1034300068216846407BFCF7FFFF05220121200040
:10344000FDF784FF33E6062201212000FDF77EFF11
:10345000A068406B002800D0D6E200256574DCE44B
:10346000012000901B23072200212000FEF72CF8EA
:103470000028F4D106202077E7831B250B21C5E522
:103480006846007B11283ED1A08EC10B1FD141049C
:10349000490F1CD0C006C00E012818D18B00A06BAC
:1034A000821C0421207CA568AD69A84703206074B4
:1034B00000256846007B142805D01420694608734F
:1034C0002000FDF724FA0D21207CFCF7B5FFA08E2B
:1034D000F0210902014016D1C006C00E042801D017
:1034E000102810D10320607400256846007B142842
:1034F00005D01420694608732000FDF708FA0E2154
:10350000207CFCF799FFE08B8021090288421FD1C3
:1035100003205FE5A068816800291FD0207C8847D0
:103520000A2802D00D2814D018E0F81CE0831E25CC
:10353000002000902423032200212000FDF7C4FF77
:10354000002805D101220121207CA3685B6A9847ED
:1035500063E40020009003230C228DE600200090FD
:103560000323042288E6E08BA9038842F0D10421DA
:103570002000FDF7F4FE6068016810220A43026033
:1035800006220121207CA3685B6A9847072201215B
:10359000207CA3685B6A98470021207C02F089F8B0
:1035A000002000902523062200212000FDF78CFF3B
:1035B0000028CDD1C9E06846007B11280BD1A08E30
:1035C0000140062907D11420694608732000FDF741
:1035D0009EF926206074E08BA9038842B8D1A368C5
:1035E000586B002800D00FE20A220121207C5B6A80
:1035F0009847CEE000212000FDF744F90D2200217C
:10360000207CA3685B6A98471421207CFCF714FF98
:103610000E220021207CA3685B6A984760680078CE
:103620008007800F012804D101216846407B02F009
:1036300095F82000FDF790FACDE4012000901F23BB
:103640000A2200212000FDF73FFF0028C6D10820F4
:103650002077E7831B2502220121207CA3685B6A77
:1036600098473921D2E46846007B112845D1A08EC5
:103670001F39014041D1C006C00E032806D00428DE
:1036800012D00C2808D0102820D036E03A21207C17
:10369000FCF7D2FE202012E005220121207CA36845
:1036A0005B6A98473B2106E004220121207CA36845
:1036B0005B6A98471621207CFCF7BEFE03206074ED
:1036C00000256846007B142811D116E00422012150
:1036D000207CA3685B6A98471721207CFCF7ACFE2E
:1036E0000320607400256846007B142805D0142050
:1036F000694608732000FDF70AF9E08B8021090272
:1037000088422CD104E76068016810220A430260F5
:10371000207F092805D006220121207CA3685B6A4E
:10372000984707220121207CA3685B6A9847002103
:10373000207C01F0BEFF0020009021230622002102
:103740002000FDF7C1FE002809D108220121207CBC
:10375000A3685B6A9847C548E083EB256D00F7E6F0
:103760006846007B11280BD1A08E0140062907D1A5
:10377000262060741420694608732000FDF7C7F8FE
:10378000E08BA9038842EAD1A068406B002800D0F2
:103790003AE10F20BDE6E08BA9038842DFD10E227B
:1037A0000121207CA3685B6A9847606800788007E5
:1037B000800F022802D1207C01F0B1FF2000FDF72C
:1037C000CBF915214EE7032810D10020207760683F
:1037D00000788007800F022802D1207C01F09FFF33
:1037E000042060746721207CFCF726FE6846007B7D
:1037F00014280DD02000FEF717F96846007B142826
:1038000005D01420694608732000FDF780F89FE674
:103810006069C00CAD0300281ED0218CA9420ED1D6
:103820000F2060740020009000237022217C09206A
:10383000A54D2D68A847B078401CB070FCE6A18E5D
:103840000905490F0A1833235A43154325840D18D7
:1038500033204543ADB27BE6A08CA84299D0207CB2
:10386000FDF77AF8002813D13220205C00280FD011
:103870003321615C3122A1546074002532216554EA
:10388000A06AE06260698021C901014361615FE66D
:10389000608CA84204D1002565843079FFF787FB4E
:1038A0002000FDF783FD80E00020029003200190BE
:1038B0000120009023002C33062200212000FDF778
:1038C0002EFE0028E3D15D21CCE60020049004AB5D
:1038D00005AA0A216846407BA7687F69B84704218A
:1038E0000498FDF78FFD00281FD1F0713072207C05
:1038F000FDF704FA002803D1307A802101433172A8
:10390000049A05A9714820180CF008FB00200290C9
:1039100003200190082000906D4823180C220021FC
:103920002000FDF72FFF4C219CE6012010E501202F
:103930000090392332783320215C2000FDF7C4FD4C
:10394000002844D170782077E7831B25442189E63D
:10395000E08BA903884204D16846007B142800D17B
:10396000D6E56846007B142831D0A08EC10B03D069
:103970002000FDF711FE40E7C006C00E102800D061
:10398000C6E51420694608732000FCF7C0FF002537
:10399000E58303206074592164E62000FDF71EFFD3
:1039A00003E003A92000FDF7BBF9FFF735FA03A9EF
:1039B000200000F0D5F90500606800680104C90F17
:1039C00006D0206801686846407B01F0C7FEBFE56D
:1039D0000121F8E76846007B112811D1A08E014033
:1039E00013290DD11420694608732000FCF78FFFBE
:1039F000002000902023032200212000FDF764FD19
:103A0000E08CA903884206D1922082E56846017BBA
:103A1000200001F005FC9BE560690127410B39405E
:103A200019D0800B384007D05B21207CFCF704FDC7
:103A3000606928490140616103206074A17C032909
:103A400008D0A0740020009000230322217C0420D1
:103A50003568A847012560691F4901406161002D53
:103A600001D1FFF7C9F8FFF70BFA0000D68100007B
:103A70007FB504000D000020029002AB1748221809
:103A80000021207CA6687669B0470298801C0290CD
:103A900004210298FDF7B6FC002813D16068006885
:103AA000C104C90F0ED00195029880B20090084859
:103AB000231801220021207C01F054FE0328E7D0C6
:103AC00004B070BD1020FBE700000020670200007A
:103AD00063020000FFBFFFFFFFDFFFFF6502000082
:103AE000F8B58CB0040002250726607C052802D0BA
:103AF0009A2872D027E1606800788107890F20003A
:103B000000F05EFA9420800021581F2081438F48E6
:103B10000843942189006050616800910121009A56
:103B2000126853090B408A4A024058031043FF228F
:103B300012060243942080002250009800688008FA
:103B4000014003D060694107C80F00E002209421C2
:103B50008900671802909A200190012000903B0094
:103B60000F2201212000FDF7DAFC002809D160694D
:103B7000E9030143616151202077764860841E2566
:103B8000E1E00928FCD0B87C152802D27248608494
:103B90000AE0E06840690090002805D00023052273
:103BA0000121207C009FB84760680068000A30400F
:103BB000032800D1A4E06948E18B01420BD0082121
:103BC0006174E18B01402D2903D2E18B05000D408A
:103BD000B9E02D25B7E06674B5E001910120FCF74E
:103BE000CFFE69460870A18E00271F220198007839
:103BF0006B461B7898424FD1C80B4DD1080B304211
:103C00004AD01F2008400F2846D1A06B8078009032
:103C10000240012A3BD1800939D00806810F2000DB
:103C200000F0CEF9E0684069002823D000988509AB
:103C3000A807800F01281DD103AAA06B811D207C3D
:103C400001F09AFB002811D103ABAA07920F0121C2
:103C5000207CE5686D69A8475221207CFCF7ECFBCD
:103C60001420942189006118887403E01B21207CB2
:103C7000FCF7E2FB678460680068000A30400328B4
:103C800002D16074002502E0667400252777019850
:103C90000078142819D156E003200A40102A1BD1BD
:103CA000678461680968090A3140032902D1607498
:103CB000002502E06674002527775921207CFCF757
:103CC000BBFB0198007814283DD01420019908709E
:103CD0002000FCF71CFE36E0618CAA03914232D131
:103CE000678461680A68130A3340032B0CD1E068CB
:103CF0004569002D04D0002304220121207CA8471F
:103D00000320607400251EE0930E184002280ED197
:103D1000B74810406A0602430A600121207C01F086
:103D2000EAFC0D4860842D25082060740AE0E068F4
:103D30004569002D04D0002304220121207CA847DE
:103D400066740025277728000DB0F0BD01800000C3
:103D50003F9800001E8000002D800000FF7F0000C3
:103D6000F8B5040002250327A24E1420627C9D2A88
:103D700010D00ED39F2A57D03DD3A12A00D185E081
:103D800077D3A32A00D1A3E000D28EE0A42A00D1E9
:103D900006E113E160680068B821490101409820FC
:103DA0004001814221D1207CA168C96A88470A2844
:103DB00002D00D2807D00FE09E2060746069E902F0
:103DC00001436161FAE00020009003230C220021EE
:103DD0002000FDF779FBF1E000200090032304228E
:103DE00000212000FDF770FB02E06069064066617B
:103DF00067740025E2E0002000909E23032200214A
:103E00002000FDF761FB0028F4D160680068010420
:103E1000C90F05D09F2060747748E083962501E0A4
:103E2000A02060743F21B7E0E28BAB039A4200D13F
:103E3000ACE00A78112A1BD1A28E704B1340062BDE
:103E400016D108702000FCF762FDA068026B002A02
:103E500002D00021207C904760690640666167744B
:103E600000254221207CFCF7E7FA6584644965540B
:103E7000A4E0A068026B002A02D00121207C9047B8
:103E8000A120607400205E49605497E000200090FB
:103E90000323062200212000FDF716FB0028F4D1A1
:103EA000606906406661422176E000200090A3230D
:103EB0000B2200212000FDF707FB0028E5D16069F7
:103EC000E902014361614F48E0831B253E2163E025
:103ED0000A78112A55D1A28EF0231B02134050D12B
:103EE000D206D20E032A06D0042A24D00C2A14D0DB
:103EF000102A2ED045E0626812681304DB0F01D04F
:103F00009F2200E0A02262740A78142A03D008706D
:103F10002000FCF7FCFC3F2130E062693240626126
:103F2000677400250A78142A03D008702000FCF773
:103F3000EEFC402122E06269324062616774002534
:103F40000A78142A03D008702000FCF7E0FC412115
:103F500014E0626812681304DB0F02D1A4226274B9
:103F600004E0626932406261677400250A78142AAD
:103F700003D008702000FCF7CAFC4321207CFCF72A
:103F80005BFAE08B80210902884217D16069064004
:103F90006661677400251C21207CFCF74DFA0DE05A
:103FA000A068026B002A02D00121207C9047606942
:103FB0000640666167740025134860842800F2BDDE
:103FC00038B50A0043681C68032103252540AA422E
:103FD00000D32A00064D254094068A0622402A4333
:103FE0001A60920E1140007C01F085FB31BD00008B
:103FF000FFFFFFF3FFEFFFFF968000001FF00000C0
:10400000620200001B8000002D800000F8B50A004D
:10401000AA498300CB58102101241D686D686D0AE0
:10402000254004D0DD68002D01D0022A01D10221F3
:104030002DE032255D5D002D04D15D682D682D0BCE
:104040002C4001D1032122E033241A550725002AF0
:1040500002D0012A08D01AE05A681268120A1540E4
:10406000032D14D17D210CE05A681268AB4E164026
:1040700082277F00BE4203D0120A1540032D06D1CD
:104080000521322299549968896A884700210800DD
:10409000F2BD70B50A0089498300CB581021DC6855
:1040A000002C01D0022A01D1022120E032241C5D23
:1040B000002C05D15C68256801242E0B264001D117
:1040C000032114E06D056D0F032D10D133255A55D2
:1040D0007F2532269D55002A05D0012A07D15A692D
:1040E000120C144003D09968896A8847002108009F
:1040F00070BDF8B50B00714984000C591021E568BA
:10410000002D01D0022B01D1022123E03225655D73
:10411000002D05D165682E680125370B2F4001D190
:10412000032117E07605760F032E13D13326A3550E
:1041300081263227E6559626B600A253002B05D0DD
:10414000012B07D16269120C154003D0A168896A5E
:10415000884700210800F2BDF1B558486C46247824
:10416000A40004591020E568002D01D10220F2BD01
:104170003225655D002D05D165682E680125370B58
:104180002F4001D10320F2BDE127FF003740C226B6
:10419000B600B7421ED13326A15582263227E655F6
:1041A0009626B600A2536669AF4A32409E01E023CC
:1041B0005B00334013436361002905D0022900D01E
:1041C00008D2190C0D4005D068460078A168896AAC
:1041D00088470020F2BDF1B538486C462478A40029
:1041E00004591020E568002D01D10220F2BD3225CE
:1041F000655D002D05D165682E680125370B2F40C0
:1042000001D10320F2BDE127FF003740C226B600EE
:10421000B7421ED13326A15583263227E65596266E
:10422000B600A2536669904A32409E01E0235B00CB
:10423000334013436361002905D0022900D008D21E
:10424000190C0D4005D068460078A168896A884736
:104250000020F2BDF1B519486C462478A400045939
:104260001020E568002D01D10220F2BD3225655DE8
:10427000002D05D165682D6801262F0B374001D12F
:104280000320F2BD67693F0C3E4001D10E0013D1FF
:104290006D056D0F032D0FD1332021548520322160
:1042A0006054952080002018026083806846007862
:1042B000A168896A88470020F2BD0000BC06002082
:1042C00038B50B00694984000D591021EC68002CA9
:1042D00001D0002B01D002211EE03223EB5C002B29
:1042E00004D16B681B68DC04E40F01D1032113E0E7
:1042F0005B055B0F032B0FD100243323EC54842187
:104300003223E95495218900691806230B608A80BD
:10431000A968896A88470021080032BD04070000A7
:1043200070B50A0051498300CB581021DC68002C7D
:1043300001D102211DE032241C5D002C05D15C68F6
:1043400024680125260B2E4001D1032111E0E60B44
:10435000354001D115000CD16405640F032C08D140
:1043600033215A548621322299549968896A8847A0
:104370000021080070BD3E494218818E4904490F52
:10438000491E11763121415C002900D0704770B57B
:10439000002310E0816B9C0009198C79CD792D02E6
:1043A00064190D7A2D046419497A090661189C0074
:1043B00011515B1CDBB2117E8B42EBDB0400032549
:1043C0002C4B2D489426B600A65DF606F60E761EFA
:1043D0000DD0761E22D0761E25D0761E28D0761ED1
:1043E0002BD0761E2ED00A3E0F2E37D970BD50210D
:1043F000217761680A689306DB0F9426B600A659F8
:10440000760B35409D4200DA2B002025AA435B0144
:104410002B4013430B60E083752023E0522121776A
:10442000E08376201EE053212177E083782019E095
:1044300054202077E383792014E055202077E3830C
:104440007A200FE0E068C36A002B05D0002900D075
:1044500001211268207C9847657470BD5A2121772C
:10446000E0837B20607470BD3FFEFFFFBC06002030
:1044700094040000198000000F800000F2B59CB089
:104480000500022004906A7C10007538072806D2C7
:104490001C980078142802D0022000F0BCFE942062
:1044A00080002C180B211E271F20C043C026F64376
:1044B000752A41D0762A00D1BBE0772A00D144E1A9
:1044C000782A00D1B4E1792A00D116E27A2A00D103
:1044D0004BE27B2A00D192E27D2A00D1E0E27F2AE2
:1044E00000D152E3812A00D1C2E3822A01D100F037
:1044F0003BFC832A01D100F0C9FC842A01D100F0E1
:1045000038FE852A01D100F05DFD872A00D1FCE24A
:10451000892A00D175E38B2A01D100F0E4FB8C2AB3
:1045200001D100F063FC8D2A01D100F0F7FC8F2A45
:1045300001D100F0A5FDB2E201220392D303EA8B80
:104540009A4200D162E2012722681040384320607D
:10455000034323606868006842093A40C94818402C
:10456000520302432260686800680140092951D063
:10457000E86800284ED00368002B4BD0100CFF21B8
:104580000902884246D10BA9287C9847032802D00B
:104590000F2805D03EE02068C021014321603EE0A5
:1045A000206806404020304320600B9815900C98FE
:1045B00016900D981790042003900BA82021405CC2
:1045C0004108394203D00F99189105210391C2087F
:1045D0000121114008D0119E14AA039B9B00D650C4
:1045E000039A521CD2B203920009384217D0002914
:1045F00007D0002014A9039A920088500398401C09
:104600000390129814A9039A920088500398401CB2
:10461000039004E02068064080203043206020683A
:10462000149000200290032001900398009014AB96
:104630002FE201226B461A73D203EB8B934200D117
:10464000E4E1236818400223034323601A432260F5
:10465000686803689806C00F8A4B134040031843EC
:1046600020606A681268114009295FD0E9684B68C8
:10467000002B5BD0000CFF210902884256D18248F2
:104680002A1805A9287C984703284BD00F284DD11C
:10469000206806404020304320601C2106A80BF013
:1046A00049FC0023002206A8009014E05F00F65B9E
:1046B00036040E4306600DE0521C0098001D590898
:1046C00089004018D9070168059EEFD55F00F65BA9
:1046D000314301605B1C6D4828184078834201D249
:1046E0000C2BE9D3801A694969184870D0B20C289C
:1046F00011D12068069000200290772001900720B9
:10470000009006AB0F223120295C2800FCF707FF40
:104710005F48E883C3E11206500E801C69460873A7
:10472000206808E02168C020084303E020680640B4
:1047300080203043206006900020029003200190EA
:104740006846007B009006ABA3E180210902EA8B5A
:104750008A4200D15AE122681040022202432260BC
:1047600092B2FF2000061043206001432160012720
:104770006868006840093840424A0A4040031043D4
:104780002060064040203043206003AA05A9287C11
:10479000EB685B6898471C2106A80BF0CBFB002157
:1047A000002206A82C0016E04D00755B2D0466461D
:1047B00035431D600EE0521C031D4D08AD005B1912
:1047C00039421E68B446059EEED04D00755B6646C4
:1047D0002E431E60491C2D4BE3185B78994201D291
:1047E0000C29E8D3981A294961184870D0B20C28CE
:1047F0000FD100200290772001900720009006AB97
:104800000F223120215C2000FCF789FE2048E08344
:1048100045E100200290032001901006400E801C0C
:10482000C0B2009006AB0F223120215C200034E1A1
:1048300001220692D203EB8B934200D1C1E323689D
:1048400018400323034323601A4322606868036807
:104850009806C00F0B4B13404003184320606A6852
:1048600012681140092937D0E9688F68002F33D0CA
:1048700003AB05AA010C287CB84703280AD00F28EF
:104880000DD029E0FF9FFFFFAD040000AC04000045
:104890000F8000002068C0210143216023E06846AA
:1048A000007B002818D06846027B072A14D22068B3
:1048B000064040203043206000230698934211D2E6
:1048C0000599096807AE361D9F00F1510599091D2C
:1048D0000591401C5B1CF1E72068064080203043B6
:1048E000206000E0069020680790002002900320DE
:1048F00001900698009007ABCBE080210902EA8B7B
:104900008A4200D15DE32268104004220243226003
:104910001143216001206A68126852090240A64BC7
:104920000B405103194321606A681268D208104095
:1049300052D1E868C368002B4ED007270A0A3A40D4
:10494000090C287C9847032841D00F2844D12068BF
:104950000640402030432060000A07406869404913
:104960000140B801084368613BE080210902EA8BFD
:104970008A424BD022681040052202432260114334
:10498000216001206A681268520902408A4B0B407C
:104990005103194321606A681268D20810401BD184
:1049A000E8680369002B17D04805420F090C287CE2
:1049B000984703280BD00F280ED1206806404020CE
:1049C00030432060686926490140696109E0206838
:1049D000C0210143216004E020680640802030436C
:1049E000206000200290032001900120009023000D
:1049F0000F223120295C2800FCF791FD4FE00120B7
:104A000069460873E88B80210902884200D1ABE334
:104A1000E868476B002F2AD068482B1818302A18EE
:104A20002078C106C90E287CB84703281AD00F2861
:104A30001DD1206806404020304320600022684697
:104A4000007B5F49695C8A4217D291005B4BEB188F
:104A50005B5805AE361D7350401C521CF1E700BF79
:104A60003FFEFFFF2068C0210143216007E020686E
:104A7000064080203043206001E0694608732068CA
:104A8000059000200290032001906846007B009072
:104A900005AB0F223120295C2800FCF740FDB9E36B
:104AA00001212268104008432060CA0302432260AB
:104AB0006868006843090B403F4810405A030243AE
:104AC0002260BF481040206006402660B0B2FF223E
:104AD000120602432260686800688008014003D023
:104AE00068694107C80F00E002200290872001900A
:104AF0000120009023000F223120295C2800FCF7C0
:104B00000EFD0028CBD15020E8E03120285CFBF7D7
:104B100037FF1C990978814200D045E2A88EC20B6C
:104B200076D1020B520712D0C006C00E0F286FD1EB
:104B3000142905D014201C9908702800FBF7E7FE03
:104B4000A86B8178CA06D20E012A61D18C0900D1E6
:104B50002AE2E9684969002900D1E3E20321214002
:104B6000012900D0DEE20BAA811D287C00F004FCA4
:104B7000002808D10BAB01220021287CEC68646975
:104B8000A0475121ECE01B21EAE021680E4026609D
:104B9000022130400843206080B2FF221206024307
:104BA000226088031043206001226B681B685E0945
:104BB0001640014B06E000BFFF9FFFFF940400007A
:104BC000AC04000003407003184320607C4B03409A
:104BD0002360686800688008024002D06869400766
:104BE000C10F0291892001900120009023000F2223
:104BF0003120295C2800FCF792FC002872D1522059
:104C00006CE03120285CFBF7BBFE1C9909788142DF
:104C100000D0C9E1A88EC20BFAD1020B52076FD0A7
:104C2000C006C00E0F28F3D1142905D014201C99FA
:104C300008702800FBF76BFEA86B8178CA06D20EBD
:104C4000022AE5D10C065BD0E9688969002900D108
:104C500068E20BAA811D287C00F055FC0BABA20F6B
:104C60003120295C287CEC68A469A047532177E0B7
:104C700021680E40266030400321014321602089D5
:104C80008AB20104114321608020000208432060A1
:104C900001216A68126852090A409E4B0340500382
:104CA00018432060464A0240226068680068800815
:104CB000014003D068694107C80F00E0022002905C
:104CC0008B2001900120009023000F223120295CCD
:104CD0002800FCF724FC002804D1532028778E48B4
:104CE000E883049796E23120285CFBF749FE1C9983
:104CF000097881428CD1A88EC20B89D1020B520750
:104D000000D151E1C006C00E0F2800D04CE114299B
:104D100005D014201C9908702800FBF7F8FDA86B3B
:104D20008178CA06D20E032AEFD18E09E8D0E9684D
:104D3000C969002917D00BAB821D2068010C287CA3
:104D400000F022FC03240BAB032232403120295C0B
:104D5000287CEF68FF69B8473440012C03D1542107
:104D6000287CFBF769FBDDE121680E4026603040BE
:104D7000042101432160208989B200040843206096
:104D8000802109020143216001206A6812685209EA
:104D90000240604B0B405103194321606A69D20500
:104DA000520F074B0B4011021943216069680968D3
:104DB0008908084006D068694107C80F03E000BFB2
:104DC000FFF8FFFF022002908C200190012000904C
:104DD00023000F223120295C2800FCF7A0FB0028CB
:104DE00000D017E25420287734218CE0342631207B
:104DF000285CFBF7C5FD1C990978814244D1A88E37
:104E0000C20B41D10727020B3A423DD0C006C00E6B
:104E10000F2839D1142905D014201C9908702800B6
:104E2000FBF775FD00202877A86B8078C106C90EB6
:104E3000042929D1800927D001908F48019901299F
:104E400004D00ED3032908D002D30AE0352608E0A7
:104E5000696908406861362603E06969084068614D
:104E600037263100287CFBF7E7FAE868066A002E4F
:104E700009D02068010A0F400097030C019A3120E5
:104E8000295C287CB0474DE1A85D8FE021680E4089
:104E900026603040052101432160208989B2000449
:104EA00008432060802109020143216001206A68D3
:104EB000126852090240174B0B40510319432160FD
:104EC0006A69D205520F6D4B0B40110219432160E4
:104ED000696809688908084003D068694107C80FF4
:104EE00000E0022002908D2001900120009023001C
:104EF0000F223120295C2800FCF711FB00285ED12D
:104F0000552028775521287CFBF796FAC348E8837B
:104F100032202CE1FF9FFFFF1E8000003120285C23
:104F2000FBF72EFD1C99097881423DD1A88EC20B5A
:104F30003AD10726020B324236D0C006C00E0F28E7
:104F400032D1142905D014201C9908702800FBF7D1
:104F5000DEFC00202877A86B8078C106C90E0529E1
:104F600022D1800920D00190012804D009D3032840
:104F700005D002D305E0562104E0572102E0582174
:104F800000E05521287CFBF757FAE868476A002FB4
:104F900009D02068010A0E400096030C019A3120C6
:104FA000295C287CB847BDE03420285CC006C00ED0
:104FB000102800D1BFE0E88B80210902884200D090
:104FC00028E1D1E000216A46117321680E40266075
:104FD00061683040C906C90E0143216020898AB248
:104FE0000104114321608020000208432060012653
:104FF0006968096849093140AA4A024048031043D8
:1050000020601E4901403002084320600590E86896
:10501000006B019000280BD005A8001D009003AB89
:105020002078C206D20E3120295C287C019CA04742
:105030006846007B401C6946087368680068800801
:10504000064003D068694107C80F00E002200290C3
:105050008F2001906846007B009005AB0F22312025
:10506000295C2800FCF75BFA002804D15A20287735
:10507000BF48E8830497CAE03FFEFFFFFFF8FFFF49
:105080000726A88E000B07210140481E69460871BB
:105090003120285CFBF774FC1C990978814244D1CB
:1050A000A88EC20B41D1020B32423ED0C006C00EC8
:1050B0000F283AD1142905D014201C990870280013
:1050C000FBF725FCA86B8078C106C90E6268914287
:1050D0002BD1810929D0E968896B002922D00026CB
:1050E00011E0A96BB2008B189C79DF793F02E419BB
:1050F0000831895C090461185A7A1206891805AAD0
:10510000B300D150761C694609798E42E9D305A9CE
:10511000009101ABC206D20E3120295C287CEC68DC
:10512000A46BA0470020E8831EE03420285CC00662
:10513000C00E102813D11C980078142805D0142014
:105140001C9908702800FBF7E2FB0020E88303218C
:10515000697404905921287CFBF76EF95AE0E88BBA
:1051600080210902884255D10320687400200490F0
:1051700050E000216A46117321680E402660616884
:105180003040C906C90E0143216020898AB201045A
:1051900011432160802000020843206001266968D5
:1051A0000968490931403F4A0240480310432060E2
:1051B000704901403002084320600590E868836A26
:1051C000002B04D005A8021D03A9287C9847684637
:1051D000007B401C694608736868006880080640C8
:1051E00003D068694107C80F00E002200290032045
:1051F00001906846007B009005AB0F223120295CAE
:105200002800FCF78CF9002801D15A2028770020CB
:105210003221685404981DB0F0BD000032800000B7
:10522000142900D0704770B58CB00400E0680028E5
:1052300035D0C06B002832D0002569460D7305A813
:10524000031D03AA04A9207CE668F66BB047049806
:10525000CC49014004916846007B401C69460873B4
:1052600004980590606800684107C90F03D0606921
:105270004107C80F00E00220029003200190684619
:10528000007B009005AB0F223120215C2000FCF751
:1052900046F9002801D159202077322025540CB03E
:1052A00070BD0000FF9FFFFFF8B5032401250168D2
:1052B0004968490929401FD0C16800291CD0816B69
:1052C0008A78CB781B02D2180B791B04D218497943
:1052D000090651180091CA0B2A4014D094239B0050
:1052E000C1508909214007D101684968090A29404C
:1052F00002D0FFF740F8F1BD416809680C40022C6C
:1053000034D14574F1BD818E4904490F491EB14A1B
:105310008154060000200FE0B16B820089188A7961
:10532000CF793F02D2190F7A3F04D219497A090680
:10533000511882009950401CA749731818317218EF
:1053400011788842E8D30099F068002808D0076CEB
:10535000002F05D0307CB847002801D17474F1BD0E
:10536000706800680440022C00D17574F1BD000023
:105370001E800000FFF8FFFFFCB503000020974CE3
:105380009B00E35801939B8E5B045B0F5C1EE3B2B2
:10539000032B00D2B5E00B0019785D782D02491976
:1053A0009D782D044919DD782D064D191560197960
:1053B0005E79360289199E7936048919DE793606B6
:1053C0008919516008211E7A5F7A3F02F6199F7A87
:1053D0003F04F619DF7A3F06F6199660E41E202690
:1053E000975DE0263E406F463E706E463678202739
:1053F000D655260622D0661E6F467E70AE00760F0A
:10540000052E27D801A7BF5DBF4400BF3206065A4C
:1054100080A60C216C4624780826264320241655A5
:105420001C7B5E7B3602A4199E7B3604A419DE7BAE
:105430003606A41994616C466478260062D0019EF9
:10544000B68E3606B60F022E5CD3AD016D0F59D065
:105450006D1E022D55D82025555DEF08FF073BD561
:105460000831641E39E00C216C462478012626435D
:10547000202416551C7B5E7B3602A4199E7B3604C5
:10548000A419DE7B3606A419D460D4E70C216C463F
:10549000247804262643202416551C7B5E7B360286
:1054A000A4199E7B3604A419DE7B3606A419546128
:1054B000C1E70C216C462478022626432024165589
:1054C0001C7B5E7B3602A4199E7B3604A419DE7B0E
:1054D0003606A4191461AEE7091DE4B2012C10D1FF
:1054E00010242C432025545559180B784C7824024D
:1054F0001B198C7824041B19C97809065918D16125
:10550000F6BD0220F6BDF0B5344B80001858808EF1
:105510004004400F461EF6B200200025107650765B
:105520000B00140031001A5C5E1C365C36029219C6
:10553000267E7600A253267E01227700E75B002FAD
:1055400002D0761C267601E001256276801CC0B26E
:105550001E5C5F1C3F5C3F02F619277E7F00E6530E
:10556000267E7700E75B002F02D0761C267601E0CE
:1055700001256276801CC0B28A00904201D22A00C6
:10558000D1D0F0BDFF7FFFFF30B5144C8000205814
:10559000808E4004400F401EC0B2002499831C60DE
:1055A000115D15196D782D0249191519AD782D0465
:1055B00049191519ED782D0649191D68AD005D19B9
:1055C00069601968491C1960241DE4B281008C428D
:1055D000E6D330BDAC04000094040000BC060020FB
:1055E00054498000081801680A79002A02D00A7913
:1055F000521E0A7100684178002901D0491E41708D
:1056000070470000F3B581B014001D0016269C20E1
:1056100040000AF0B1F807001ED0029E9C2149000C
:105620000AF088FC0F220321B81D0AF07BFC4148D8
:105630006946097989004750BC62FD6201200090EB
:1056400070684307DB0F3A00303200BF03A16846A1
:10565000007906F071F906003000FEBD955C000887
:10566000ED5F00084760000861600008696000089D
:1056700055570008EA208000704730B52D4C800057
:105680002058448A2C4D2540090280246400214082
:1056900029434182294C0C405101202211402143D1
:1056A0004182274A0A409901C0230B401343438299
:1056B00030BD204A80001058428A1F4B1340090217
:1056C0008022520007E01B4A80001058428A1B4B80
:1056D0001340490120221140194341827047154A65
:1056E00080001058428A164B13408901C0220A409C
:1056F0001A43428270470F4A800010588A01C02125
:1057000011400F4A838A13400B438382C38A1A4095
:105710001143C182704780B506F050F901BD10B544
:10572000040006F04FF900200249A2008958487190
:1057300010BD0000C8060020FFFE0000DFFF0000D3
:105740003FFF000080B506F049F902BD80B506F0C4
:1057500049F901BD80B5FBF74DFA01BD80B506F0F2
:1057600035F901BDF5B587B003256846007F059082
:10577000CA48059A92008018009000680400627977
:10578000002A04D0627A002A01D10F2242716A46AF
:1057900011716946097904916118059A5200521CE9
:1057A0006E467271049A52000392002602930F9A79
:1057B0006379102B00D9F6E101A75B00FF5ABF44C3
:1057C000200048005E00E4036A00A80086005A0139
:1057D000E403E403DE02080334035603E403DE03B8
:1057E000A603EFF3108772B66846007FFBF7B4F8A4
:1057F000002805D1A07A002802D1FF20607200E0C5
:10580000667287F310880620A0E16846007F06F0E4
:10581000D5F8022000990968487113206070C4E12E
:10582000012A0FD1617800290AD11CE0022A09D18E
:105830006846007F06F0D2F8012801D1052085E1F5
:105840000925B2E1062154E103996118498A090644
:10585000890F022907D1012A01D14271A5E1022A4B
:1058600001D1042145E1052143E103982018438A31
:10587000CF4A1A4008AB1B78DB06DB0E134343828A
:105880005A04520C08AB1B78DB09DB031343438239
:10589000A670438ADA0B23D0029A9278029BDB78B7
:1058A0001B02D218A283A28B930ADB070FD4D20A61
:1058B000120722D16A46128F121F6284D205D20DBE
:1058C000A38BFE273F021F403A43A28315E0668464
:1058D000428AB84B1340802252011A4342820CE0A4
:1058E000B44A1A406B461B8F9B1E9B081B03E02784
:1058F000FF011F4017434782668408AA12780D2AC9
:105900000AD1408AF0221202024005D1CE720F2243
:105910000321A01D0AF006FB072017E169460C8F42
:10592000039941185D4A6B461B7F9B00D2586B461A
:105930001B795B00D218528AD30B74D0838B9B0ADD
:10594000DB0765D4554B6F463F7FBF00DB599B8B10
:10595000478C1B2F0AD3DF0B08D0E023DB01134356
:105960004B82418C1A3941841E2451E0DA0A120715
:1059700007D1FE2212021A40438CDB05DB0D1343D4
:1059800083834B8A8B4A1A404A82838BDB0B3CD041
:10599000438C9B1C9B081B03E024E4011C40144324
:1059A0004C82408C801C8107890F25D000223B4807
:1059B000059B9B00C01800900298029104E05B8C4C
:1059C000591841180E71521C00990B68D1B2042469
:1059D000029FE41BA142F2D30290180012300399F7
:1059E00040180188734A0A40090B491C0903E02347
:1059F000DB010B40134303800098006812300399C9
:105A0000405A4004400F8400A41C0098006846845B
:105A100000980068808B0299887000980068808BDD
:105A2000000A0299C87000980268100012300399A9
:105A3000401803888C4919400B32049BD25C5302F6
:105A4000E02212011A400A43028002980270009874
:105A5000006812300399405A000A02994870009871
:105A60000068C4810A21417102210174A0B2009032
:105A7000029B68460279017F02207C4E3668B0475F
:105A80007B496846407906F069FBA3B2029A6846F2
:105A90000179007F05F080FF87E000BFC806002085
:105AA000EFF3108472B60098006840790A2809D193
:105AB0006846407906F08AFB012803D10D20009941
:105AC0000968487184F310886FE0CA7A678B3F05D4
:105AD0007F0FBA420CD1A37EDB06DB0E012B07D170
